:1017420054656D703A25342E3166204300202530D1
:1017520032642D2D202530326420202020202020AC
:011762000086
:10176300022400190222001E012600012700022D77
:0F1773000000022F0000042900000000012801DF
:1017BC00D290D291D2941217FF1216267F64121770
:0917CC008312180F1212A180FB18
:1012A1001213ECE52864017023F5281215EA8E313A
:1012B1008F32AC31AD32E4120984E4FBFA798078E3
:1012C1003D1208008F2C8E2B8D2A8C29E526640176
:1012D10060030213EBF526FFFEFDFCAB2CAA2BA944
:1012E1002AA8291209066002500302138FE4FFFEA7
:1012F1007D167C43AB2CAA2BA92AA82912090640EA
:101301000302138F7556FF755717755842852C5C6C
:10131100852B5B852A5A8529597B007A00793312FE
:101321000E8E7B007A007933E4FDFF1215927BDF8C
:10133100E4FD7F0912181BAC24AD25E4120984AB2E
:101341002CAA2BA92AA8291209065006C290D291CB
:101351008026AC22AD23E4120984AB2CAA2BA92A46
:10136100A82912090660084006D290C2918009D2CC
:1013710090D291E4F52FF530C3E5309402E52F9436
:10138100004009C2947FE81217838002D2947556F7
:10139100FF75571775584F85245985255A85225B46
:1013A10085235C7B007A007943120E8E7B007A00E4
:1013B10079437D01E4FF121592E52770047B2080BB
:1013C10008E5276401700C7B577D01FF12181B7B18
:1013D100208010E527640270117B207D01FF121827
:0B13E1001B7B577D017F0512181B22AB
:1013EC00E4F55330A00930A10630A20302149B7F10
:1013FC000A121783E553600302149E20A01775533D
:10140C00010527C3E52794037480948050030214CC
:10141C009EE4F5272220A13A755301AF277E00EFF9
:10142C0064017014D3E5259400E52494004063E531
:10143C002515257002152422EF64024E7054D3E555
:10144C00239400E52294004049E5231523700215EE
:10145C00222220A23D755301AF277E00EF6401705C
:10146C0014C3E5259463E524940050260525E52551
:10147C007002052422EF64024E7017C3E5239463B7
:10148C00E5229400500C0523E5237002052222E48A
:02149C00F55306
:01149E00222B
:1017FF00758961758CB1758AE0D28CD2A9D2AF226E
:03000B0002152BB0
:10152B00C0E0C0F0C0D075D000C000C004C005C082
:10153B0006C007758CB1758AE0052EE52E70020585
:10154B002DAE2DFF7C007D0A120D99ED4C70277589
:10155B002601AE2DAF2EFC7D32120D99ED4C70167F
:10156B00752801C3E53094C8E52F94005008053069
:10157B00E5307002052FD007D006D005D004D0007F
:07158B00D0D0D0F0D0E03217
:03182500DFFE22C1
:10178300EFD394007480948040127E78EED394005B
:0C1793007480948040031E80F31F80E4EB
:01179F002227
:0A1592008F538D548B558A568957EC
:10159C00E4F55C8B588A59895AAB550557E557AA1F
:1015AC00567002055614F9120D416004055C80E971
:1015BC00E4F55BE55BC3955C5023AF530553AB5827
:1015CC00AA59A95A855B82758300120D5AFBAD543A
:0D15DC0012181BE55364106004055B80D6F7
:0115E90022DF
:1017D500EF540FFF530501ED6003430740430780B6
:0517E5007D010217A4C4
:0A181B008B5D1217D5AF5D0217EACE
:101626001217A07F051217831217A07F05121783C2
:101636001217A07F051217837D017F381217A47D2C
:10164600017F081217A47D017F011217A47D017F77
:0B165600061217A47D017F0C0217A4F0
:0C180F007D017F011217A47F05021783E2
:0417A000E4FD7F38AD
:1017A4008F5EED6003121661C2A4C2A500855E803F
:0817B40000D2A60000C2A6222B
:1017EA008F5E121661D2A4C2A5D2A600855E8000C1
:0517FA000000C2A62260
:10166100E4F55FF5607580FFC2A4D2A500D2A600A3
:1016710000E5805480601AC3E56094E8E55F940357
:10168100500F7F021218250560E56070E4055F8048
:03169100E0C2A60E
:011694002233
:1016F300C200D2957F05121825C2957FC8121825FE
:101703007FC8121825D2957F32121825A295920010
:071713007F19121825A20046
:01171A0022AC
:1016C500E4F554F555755408D3E5549400748094A5
:1016D500804018C295E55513F555D29530950343CD
:0D16E50055807F19121825155480DDAF5572
:0116F20022D5
:021695008F5470
:10169700E4F555755508D3E555940074809480405A
:1016A70018C295E5541392957F19121825D295E51E
:0E16B70054C313F554155580DD7F1902182514
:1015EA00E4F553FFFEFDFC1216F37FCC1216957F2D
:1015FA00441216957F0A1217831216F37FCC12161D
:10160A00957FBE1216951216C58F531216C5EF7F17
:0B161A0000FEEF2553FDE43EFEAF058F
:0116250022A2
:10080000EC4D6011E8497017ED33EC3304600DE4F2
:10081000FCFFFEFD22E933E8330470F80209F2120E
:1008200009BD58046009E4CC24815006285009020F
:1008300009FC2840030209F9C0E0EB4A7044B98082
:1008400006D0E0FB0209E8EF4E701CBD8008EBFF0C
:10085000EAFEE9FD80EBE98DF0A4FEE5F00208E98F
:10086000E9CDF9EAFEEBFFEF89F0A4FCE5F0CE89D3
:10087000F0A42EFFE435F0CD89F0A42DFEE435F090
:100880008067EF4E7005BD80D780C3EF8BF0A4ACBE
:10089000F0EE8BF0A42CFCE435F0F8EF8AF0A42CF9
:1008A000E5F038FCE433CB8DF0A42CFCE5F03BF80C
:1008B000EE8AF0A42CFCE5F038F8E433CF89F0A4FC
:1008C0002CFCE5F038CF3400CE89F0A42FFFE5F002
:1008D0003EFEE433C98DF0A42EFEE5F039CD8AF05A
:1008E000A42FFFE5F03EFEE43DFD33D0E0FB5007D2
:1008F0000BBB000F0209FCEC2CFCEF33FFEE33FEC8
:06090000ED33FD0209D4F5
:1009060074F8CC6480CCC86480C8F58204604FC398
:10091600EB9FF5F0EA9E42F0E99D42F0E89C45F037
:10092600603C501DE5825FFFE582D313CB5BCBF4C1
:100936002B5582FB50280ABA002409B900200880EA
:100946001DE5825BFBE582D313CF5FCFF4C3132F84
:100956005582FF50090EBE00050DBD00010CC3EB0C
:100966009FF5F0EA9E42F0E99D42F0E89C45F06072
:0909760007CC4820E701B3EC2294
:10097F0075F020800E75F010800575F0087D007EF3
:10098F00007F003392D530D503120DEEEC334010BB
:10099F00EF33FFEE33FEED33FDEC33FCD5F0ED22FC
:0E09AF00E5F0247EA2D513CC92E7CDCEFF2238
:100E3200E56A2456F8E6056A2278533007027856A6
:100E4200E475F001120DFC020D412000EB7F2ED261
:100E5200008018EF540F2490D43440D4FF30040B98
:100E6200EF24BFB41A0050032461FFE56B60021542
:100E72006B056EE56E7002056D30070D7853E475F3
:100E8200F001120DFCEF020D8702171B7403D2074B
:100E92008003E4C207F56A8B538A548955E4F56BE3
:100EA200F56DF56EE56B60077F20120E6D80F575AE
:100EB2006CFFC201C200C202C203C205C206C2085E
:100EC200120E3BFF700D3007057F00120E7EAF6ED3
:100ED200AE6D22B4255FC2D5C204120E3BFF24D0F0
:100EE200B40A00501A75F00A786B30D50508B6FFBF
:100EF2000106C6A426F620D5047002D20380D924A6
:100F0200CFB41A00EF5004C2E5D20402116BD20131
:100F120080C6D20080C0D20280BCD2D580BAD205AF
:100F220080B47F20120E6D2002077401B56B004061
:100F3200F1120E32FF120E6D020EA6D208D20680F8
:100F420095120E32FB120E32FA120E32F94A4B7021
:100F52000679627A127BFF20022EE56B602A7E0000
:100F62008E82758300120D5A60060EEE656C70F06B
:100F7200C2D5EBC0E0EAC0E0E9C0E0EE1211CBD08E
:100F8200E0F9D0E0FAD0E0FB120D41FF60AAEBC01D
:100F9200E0EAC0E0E9C0E0120E6DD0E02401F9D031
:100FA200E03400FAD0E0FBE56C0460DCD56CD9805B
:100FB20087D20280A21211AE60F7E56C70010412B2
:100FC2000A07A96C600DE56C600914F56C121255E4
:100FD200EF60F3EA30E702F404C3995077EAF425AC
:100FE2006C0430E701E404F56C800D1211AE60C1AF
:100FF200EA056C256C120A07EA7869F630E701E423
:10100200256C04D56C04200501141211CBE4C0E058
:101012001212557869E6601320E70714F6120E558E
:10102200802204F6D0E014C0E07F00120E55E56C79
:101032006007120E4C156C800B300503120E4CD05B
:10104200E0020EA6D0E00480C51211AE60A0E56CED
:1010520004120A077869EAF6E56C200502600104C9
:0510620024041211CB73
:1010670074FF04C0E0121255120E55E56C200502FC
:101077006003120E4CD0E0B56CE87F45120E5F7826
:1010870069E67F2B30E7047F2DF404C0E0120E6D74
:10109700D0E075F00A84C0F0120E56D0E0120E565A
:1010A700020EA6791080027908C206C2088008D20B
:1010B700D5790A8004790AC2D5E56C047002F56C0B
:1010C700E4FAFDFEFF120E32FC7B08200113120E1C
:1010D70032FD7B1030000A120E32FE120E32FF7BF9
:1010E70020EC3382D592D55013C3E43000069FFF1E
:1010F700E49EFEE42001039DFDE49CFCE4CBF8C2E2
:1011070001EC700CCFCECDCCE824F8F870F3801743
:10111700C3EF33FFEE33FEED33FDEC33FCEB33FB74
:10112700994002FB0FD8E9EB300105F8D0E0C4483D
:10113700B201C0E00AEC4D4E4F78207B0070C2EA46
:10114700B56C0040BCC0E01211CDD0F0D0E020015A
:1011570004C4C0E0C4B201C0F0120E56D0F0D5F0FE
:10116700EB020EA6120E0C0F435310AA580F144C85
:101177000F104210AE4F10B64410B6490F29431056
:10118700BC550FED46104B450FB7471282500F184D
:101197002D0F1C2E0F3F2B0F20230F3D20126B2AE4
:1011A7000ED84800000F37E56CB4FF03756C0612C4
:1011B7000E32FC120E32FD120E32FE120E32FF7884
:1011C70062020A36790AA2D5200314300509B9103C
:1011D700020404B9080104A2D52006025001042024
:1011E70002689202B56B005034C0E07F20300319CB
:1011F7007F30A20272067205500F121224C202C279
:1012070006C205C2087F30800F300503E9C0E0122F
:101217000E6D300503D0E0F9D0E0B56BCC30051783
:101227007F30B9100C120E6D7F583004077F78801D
:1012370003B90803120E6D3002057F2D020E6D7F74
:10124700202008F87F2B2006F322920280CF7F0010
:10125700B4070050052462F8E6FF22286E756C6C0F
:101267002900D201120E323001F8C201786B30D555
:101277000108F6020ED82D50434958120E322403A6
:10128700B405004001E490127D93120E5E743A1289
:0A1297000E5ED203756B040210AA6C
:1009BD00E9D2E7C933E833F892D5EDD2E7CD33EC80
:0709CD0033FC5002B2D522F9
:1009D400EC30E7100FBF000C0EBE00080DBD000484
:1009E4000BEB6014A2D5EB13FCED92E7FD2274FF30
:1009F400FCFDFEFF22E480F8A2D574FF13FC7D8089
:030A0400E480EF9C
:100A0700F920E72824F950037907E4F42402FB18B6
:100A1700DBFDE624FB5014E9600DE4F618E604F666
:0F0A2700B40A08E4F6D9F57401F60A22C2D52202
:100A3600ED33EC3392D5FA602AB4FF33EDC2E77B8F
:100A4600FF60067A0A795BE4227A0A796420D50483
:100A56007A0A795F224E614E002B494E46002D4997
:100A66004E4600E47A08F608DAFC7B00740722E8B2
:100A7600C0E0ECC0E0EDC0E0EEC0E0EFC0E0EA753B
:100A8600F010A4CAABF075F04DA42BFBE435F0FCD6
:100A9600EA2410FAEB34C5FBEC34D9FCEDC2E7FFCF
:100AA60075F056A4F42411C5F0F434C58FF0A42AC9
:100AB600E5F03BE43CF620E714120D01D0E0FFD050
:100AC600E0FED0E0FDD0E0FC120C348014F40412F9
:100AD6000D01D0E0FFD0E0FED0E0FDD0E0FC120832
:100AE60000D0E0F8E6FAEDD2E7CD33EC332482FB12
:100AF600E4C3CF33CFCE33CECD33CD33DBF37B0759
:100B060075F00A846004F6081B0AE5F0F6088FF013
:100B1600740AA4FFACF08EF0740AA42CFEACF0505C
:100B2600010C8DF0740AA42CFDE435F0F608DBDE2A
:030B36007407221F
:100B39000209F2E86480F8E933E83360110460F0EF
:100B4900ED33EC337009E8FCE9FDEAFEEBFF220422
:100B590060DED3EB9FEA9EE99DE8C2E78CF0C2F71D
:100B690095F0400CE8CCF8E9CDF9EACEFAEBCFFBE9
:100B79001209BD85D0F05804700320D5B3E804707C
:100B8900075002B2D50209FC92D5EC0460F7E4CC17
:100B9900C0E0C398F8603B94186008400DD0E0FBB2
:100BA9000209D4E4FBFAC9FC8028E830E406E4C968
:100BB900FBE4CAFCE830E305E4C9CACBFCE8540706
:100BC9006010F8C3E913F9EA13FAEB13FBEC13FC11
:100BD900D8F130F52FC3E49CFCEF9BFFEE9AFEEDB4
:100BE90099FDD0E0FBEF4E4D4C701222DB03020958
:100BF900F9EC2CFCEF33FFEE33FEED33FDED30E77E
:100C0900EB0209D4EF2BFFEE3AFEED39FDD0E0FB04
:100C190050130BBB00030209FCED13FDEE13FEEFAD
:080C290013FFEC13FC0209D4D7
:100C31000209FCEC5D046005E8590470030209F245
:100C41001209BD580460F6EC4860F2EC7004FDFE38
:100C5100FF22C860DB2481C85009C3986002500696
:100C61000209F99850CAF582E9294B4A7005AB820D
:100C71000209E875F0007C1A7880C3EF9BEE9AEDCB
:100C810099400DC3EF9BFFEE9AFEED99FDE842F00E
:100C9100DC23ACF0D0E0FFD0E0FED0E0FDAB822061
:100CA100E7101BEB60BAEC2CFCEF33FFEE33FEEDEB
:100CB10033FD0209D4E803F830E705C0F075F00010
:100CC100EF2FFFEE33FEED33FD40B830E7C280AACF
:100CD1003F8000004120000042C80000447A00002B
:100CE100461C400047C35000497424004B189680AD
:100CF1004CBEBC205A0E1BCA6753C21C749DC5AEA4
:100D0100FB60065407601C2323120D2FEB5438603F
:100D110009120D1B120D2A120800ECF8EDF9EEFA7A
:100D2100EFCB22EB120D2A80F1543803241C900CD6
:100D3100D1FE93FC0EEE93FD0EEE930ECE93FF22A9
:0300000002149F48
:0C149F00787FE4F6D8FD75816E0214E63B
:100D4100BB010689828A83E0225002E722BBFE02B0
:090D5100E32289828A83E49322E3
:100D5A00BB010CE58229F582E5833AF583E022504E
:100D6A0006E92582F8E622BBFE06E92582F8E22298
:0D0D7A00E58229F582E5833AF583E49322B2
:100D8700BB010689828A83F0225002F722BBFE014B
:020D9700F32245
:100D9900BC000BBE0029EF8DF084FFADF022E4CC3E
:100DA900F875F008EF2FFFEE33FEEC33FCEE9DEC07
:100DB900984005FCEE9DFE0FD5F0E9E4CEFD22ED4D
:100DC900F8F5F0EE8420D21CFEADF075F008EF2F97
:100DD900FFED33FD4007985006D5F0F222C398FD88
:050DE9000FD5F0EA2225
:0E0DEE00C3E49FFFE49EFEE49DFDE49CFC2216
:100DFC00FAE6FB0808E6F925F0F618E6CA3AF622F8
:100E0C00D083D082F8E4937012740193700DA3A375
:100E1C0093F8740193F5828883E473740293686089
:060E2C00EFA3A3A380DF89
:10171B00EFB40A07740D121726740A309811A899A2
:10172B00B8130CC2983098FDA899C298B811F6302E
:07173B0099FDC299F5992206
:1014AB000217BCE493A3F8E493A34003F68001F284
:1014BB0008DFF48029E493A3F85407240CC8C33342
:1014CB00C4540F4420C8834004F456800146F6DF11
:1014DB00E4800B0102040810204080901763E47E27
:1014EB00019360BCA3FF543F30E509541FFEE49306
:1014FB00A360010ECF54C025E060A840B8E493A3CD
:10150B00FAE493A3F8E493A3C8C582C8CAC583CAF7
:10151B00F0A3C8C582C8CAC583CADFE9DEE780BEAF
:011782000066
:00000001FF
