:0408DB00C101C10096
:0D08CE001208B4A20192A0A20092A180F62F
:1008B400758961758C3C758AB0D28CD2A9D2AF751A
:0A08C4008DFD758BFDD28ED2AB22A4
:03000B0002088C5C
:10088C00C0E0C0D0758C3C758AB00509E5097002D2
:10089C000508C3940AE5089400400875080075091A
:0808AC0000B201D0D0D0E0320F
:03001B000208E0F8
:0308E000B2003231
:03000000020800F3
:0C080000787FE4F6D8FD758120020847DF
:10080C000208CEE493A3F8E493A34003F68001F22C
:10081C0008DFF48029E493A3F85407240CC8C333ED
:10082C00C4540F4420C8834004F456800146F6DFBC
:10083C00E4800B01020408102040809008DBE47E69
:10084C00019360BCA3FF543F30E509541FFEE493B1
:10085C00A360010ECF54C025E060A840B8E493A378
:10086C00FAE493A3F8E493A3C8C582C8CAC583CAA3
:10087C00F0A3C8C582C8CAC583CADFE9DEE780BE5B
:0108DF000018
:00000001FF
