:1001D100C0F9A4B0999282F880900102040810201D
:0201E10040805C
:1001BB00C100012B000121000122000823000000D7
:0501CB0000000000002F
:1000F50012008F300002C200E4F50DF50EF50FF584
:1001050010F511F512E52B75F00A120165FF33950F
:10011500E0F5138F14E52B75F00A120165AFF0EFCA
:100125003395E0F5158F16E4FBFAFDFCFF1201A5EA
:0501350012013A80BB3D
:10013A00E4FFFE74DB2FF58274013EF583E493F548
:10014A00B075A0FF74232FF8E69001D193F5A00FA4
:0A015A00BF00010EEF64084E70D9DB
:010164002278
:10018700D3EF9400EE940040147D787C00ED1D7051
:0D019700011CED4C70F7EF1F70E61E80E3B9
:0101A4002238
:1001A5008F238D248B25850E26851027851228857E
:0601B500142985162A2220
:10008F0020006275900F3090093091063092032056
:10009F0093182090037521FF20910375210320925F
:1000AF000375210720930375210B7590F030940988
:1000BF00309506309603209718209403752204205C
:1000CF00950375220320960375220220970375224C
:1000DF0001AF22EF3395E04F7003C20022E52125D7
:0600EF0022F52BD20022D5
:03000000020003F8
:0C000300787FE4F6D8FD75812B02004ADE
:10016500C2D530F707B2D563F0FF05F030E70CB222
:10017500D5F4048463F0FF05F080018430D502F4E2
:02018500042252
:10000F000200F5E493A3F8E493A34003F68001F212
:10001F0008DFF48029E493A3F85407240CC8C333F2
:10002F00C4540F4420C8834004F456800146F6DFC1
:10003F00E4800B01020408102040809001BBE47E95
:10004F00019360BCA3FF543F30E509541FFEE493B6
:10005F00A360010ECF54C025E060A840B8E493A37D
:10006F00FAE493A3F8E493A3C8C582C8CAC583CAA8
:10007F00F0A3C8C582C8CAC583CADFE9DEE780BE60
:0101D000002E
:00000001FF
