:030000000208B53E
:0C08B500787FE4F6D8FD7581310208FC64
:100941000808FEFDFBF7EFDFBF7F08107FBFDFEF79
:10095100F7FBFDFE1018FEFDFBF7EFDFBF7F7FBF4A
:10096100DFEFF7FBFDFE0828FEFBEFBF7FDFF7FDA2
:10080000E4F531FFEF703E20900C002090087F014E
:100810007531013090FD20910C002091087F017509
:1008200031023091FD20920C002092087F01753139
:10083000033092FD2093CD002093C97F01753104D0
:100840002093C180FBE53164017016F530C3E530BB
:1008500094087480948050ED7408120972053080F9
:10086000ECE53164027016F530C3E530940874800D
:10087000948050D17410120972053080ECE5316417
:10088000037016F530C3E53094107480948050B531
:100890007418120972053080ECE531640470A6F515
:1008A00030C3E530940874809480509974281209FC
:0508B00072053080EC30
:0D0990007F787E00EF1F70011EEF4E70F7A4
:01099D002237
:0A0972002530F8E6F5A07F2C7E0189
:10097C00AD07AC06ED1DAE0470011C4E60051209EE
:04098C009080F12244
:1008C100020800E493A3F8E493A34003F68001F245
:1008D10008DFF48029E493A3F85407240CC8C33338
:1008E100C4540F4420C8834004F456800146F6DF07
:1008F100E4800B0102040810204080900941E47E4D
:10090100019360BCA3FF543F30E509541FFEE493FB
:10091100A360010ECF54C025E060A840B8E493A3C2
:10092100FAE493A3F8E493A3C8C582C8CAC583CAED
:10093100F0A3C8C582C8CAC583CADFE9DEE780BEA5
:010971000085
:00000001FF
