:1001B600021300000B083031323334353637383904
:0C01C600000915564F4C544147453A00C3
:0A018C00F8E6FF1202117F057E0065
:10019600E4FDFCC3ED9FEC9E5015E4FBFA0BBB009F
:0F01A600010AEB64784A70F50DBD00010C80E48E
:0101B5002227
:1001D300C2B0D2B0120192C2B030B1FDD2B2AFA060
:0801E3007513008F14C2B22253
:1001FF00A907C2B3C2B4C2B51201928990D2B5C2D7
:02020F00B52216
:10021100A907D2B3C2B4C2B51201928990D2B5C2B4
:02022100B52204
:1001EB007F381201FF7F0C1201FF7F061201FF7F88
:0401FB00010201FFFD
:10000300E4F51EF51FF520AE13AF14FC7D64120159
:10001300257D331201378E138F147C007D6412010A
:10002300378F1EAE13AF147C007D641201377E0040
:100033007F0ACFCDCFCECCCE1201378F1FAE13AFF9
:10004300147C007D0A1201378D207F801201FF127C
:100053000192E4F583F582AF8274152F12018CA30C
:10006300E5826408458370EF7FC81201FF12019295
:100073007408251E12018C7F2E12018F7408251F10
:1000830012018C7408252012018C7F561202117FF5
:06009300057E000201964B
:0B0223001201EB1201D312000380F85F
:0300000002009962
:0C009900787FE4F6D8FD7581200200E0BD
:10012500EF8DF0A4A8F0CF8CF0A428CE8DF0A42EEE
:02013500FE22A8
:10013700BC000BBE0029EF8DF084FFADF022E4CCAC
:10014700F875F008EF2FFFEE33FEEC33FCEE9DEC75
:10015700984005FCEE9DFE0FD5F0E9E4CEFD22EDBB
:10016700F8F5F0EE8420D21CFEADF075F008EF2F05
:10017700FFED33FD4007985006D5F0F222C398FDF6
:050187000FD5F0EA2293
:1000A500020223E493A3F8E493A34003F68001F24C
:1000B50008DFF48029E493A3F85407240CC8C3335C
:1000C500C4540F4420C8834004F456800146F6DF2B
:1000D500E4800B01020408102040809001B6E47E04
:1000E500019360BCA3FF543F30E509541FFEE49320
:1000F500A360010ECF54C025E060A840B8E493A3E7
:10010500FAE493A3F8E493A3C8C582C8CAC583CA11
:10011500F0A3C8C582C8CAC583CADFE9DEE780BEC9
:0101D200002C
:00000001FF
