:10086500FEFDFBF7EFDFBF7F00003828FF283800CB
:10080000E4F508F50974652509F58274083508F5DD
:1008100083E493F5A0746D2509F58274083508F515
:1008200083E493F5B07F017E0012084575A0FFE4D4
:10083000F5B00509E50970020508C39408E50894B8
:050840000040C280BB76
:10084500D3EF9400EE6480948040147D787C00EDB5
:0F0855001D70011CED4C70F7EF1F70E41E80E169
:010864002271
:030000000208757E
:0C087500787FE4F6D8FD758109020800C8
:00000001FF
