:10094700C0F9A4B0999282F88090BF010204081000
:0B095700204080000102030405060799
:0F097800C100012C000824000000000000000056
:100962008F248D258B26850E2785102885122985B3
:06097200142A85162B2259
:10092900D3EF9400EE940040147D787C00ED1D70A7
:0D093900011CED4C70F7EF1F70E61E80E30F
:01094600228E
:1008EA00E4FBEBFF3395E0FEC3EF9408EE648094DB
:1008FA0080502BEB3395E0FE74522FF58274093E3B
:10090A00F583E493F5B0E4F5A074242BF8E6900996
:0E091A004793F5A07F017E001209290B80C4CF
:0109280022AC
:10088C00E4FFFE20005775900F3090093091063030
:10089C0092032093142090027FFF2091027F03206B
:1008AC0092027F072093027F0B7590F030940930F1
:1008BC0095063096032097142094027E042095020E
:1008CC007E032096027E022097027E01EEFD339578
:0D08DC00E04D7003C20022EF2EF52CD2007B
:0108E90022EC
:0D09880012088C300002C2001208EA80F351
:03000000020800F3
:0C080000787FE4F6D8FD75812C020847D3
:10080C00020988E493A3F8E493A34003F68001F271
:10081C0008DFF48029E493A3F85407240CC8C333ED
:10082C00C4540F4420C8834004F456800146F6DFBC
:10083C00E4800B0102040810204080900978E47ECB
:10084C00019360BCA3FF543F30E509541FFEE493B1
:10085C00A360010ECF54C025E060A840B8E493A378
:10086C00FAE493A3F8E493A3C8C582C8CAC583CAA3
:10087C00F0A3C8C582C8CAC583CADFE9DEE780BE5B
:01098700006F
:00000001FF
