:10012C0000100001000402020102040810204080AB
:08013C00FEFDFBF7EFDFBF7FC2
:030166000109008C
:10011300E4F50890013793F5A01200008F089001D1
:0801230035E493F5A0E4F509B1
:01012B0022B1
:1000F200E4F50AC3E50A94087480948050F2E50A94
:1001020090012C93F5A07FE87E03120144050A803A
:01011200E20A
:0D0158007F787E00EF1F70011EEF4E70F7E4
:010165002277
:10014400AD07AC06ED1DAE0470011C4E6005120136
:040154005880F122BC
:10008F00E509705EAF90EFF460F600AF90EFF460AB
:10009F004CAF90EF2481603E24C0603524E0602C8B
:1000AF0024F0602324F8601A24FC601124FE6008F9
:1000BF0014702A90013C802190013D801C90013EDC
:1000CF00801790013F8012900140800D9001418078
:1000DF00089001428003900143E493F5A075090154
:0300EF00809E22CE
:03000000020003F8
:0C000300787FE4F6D8FD75810A02004AFF
:10000F000200F2E493A3F8E493A34003F68001F215
:10001F0008DFF48029E493A3F85407240CC8C333F2
:10002F00C4540F4420C8834004F456800146F6DFC1
:10003F00E4800B0102040810204080900166E47EEA
:10004F00019360BCA3FF543F30E509541FFEE493B6
:10005F00A360010ECF54C025E060A840B8E493A37D
:10006F00FAE493A3F8E493A3C8C582C8CAC583CAA8
:10007F00F0A3C8C582C8CAC583CADFE9DEE780BE60
:010169000095
:00000001FF
