:0A08BB00C0F9A4B0999282F8809071
:0308D90001080013
:10088C001208C51208CCC3E508940A748094804001
:0E089C0003E4F508E5089008BB93F5A080E2A0
:0708C500C288D2A8D2AF22C5
:0708CC00C28AD2AAD2AF22BA
:030003000208D31D
:0608D300050830B2FD3201
:030013000208AA36
:1008AA00C0E0E508700375080A150830B3FDD0E00A
:0108BA00320B
:03000000020800F3
:0C080000787FE4F6D8FD758108020847F7
:10080C0002088CE493A3F8E493A34003F68001F26E
:10081C0008DFF48029E493A3F85407240CC8C333ED
:10082C00C4540F4420C8834004F456800146F6DFBC
:10083C00E4800B01020408102040809008D9E47E6B
:10084C00019360BCA3FF543F30E509541FFEE493B1
:10085C00A360010ECF54C025E060A840B8E493A378
:10086C00FAE493A3F8E493A3C8C582C8CAC583CAA3
:10087C00F0A3C8C582C8CAC583CADFE9DEE780BE5B
:0108DC00001B
:00000001FF
