:10026900C0F9A4B0999282F88090BF0102040810E5
:0B02790020408000010203040506077E
:10028400C100C10101300001210001220008280041
:070294000000000000000063
:10022C007B397A007D3B7C007F171200031202B2EF
:0F023C00300102C2013000F812009AC20080F1B6
:1001F300E4F508F509747C2509F58274023508F5E0
:1002030083E493F58075A0FF74282509F8E690022E
:100213006993F5A01202C20509E50970020508C336
:080223009408E508940040CDA9
:01022B0022B0
:10024B00D3EF9400EE940040147D787C00ED1D708C
:0D025B00011CED4C70F7EF1F70E61E80E3F4
:010268002273
:10029C008F288D298B2A85102B85122C85142D8562
:0602AC00162E85182F221A
:1001170020017875900F30900930910630920320B6
:1001270093182090037521FF2091037521032092D6
:100137000375210720930375210B7590F0309409FF
:1001470030950630960320971820940375220420D3
:1001570095037522032096037522022097037522C3
:1001670001AF22EF3395E04F7003C20122E521254D
:1001770022F530FF3395E0FEEF64014E700B7B3ABA
:0C018700FA7D3BFC7F16120003D201221F
:0502C200000000002215
:1002B200758901758CFC758A18D28CD2A9D2AF22AD
:03000B000201935C
:10019300C0E0C0F0C083C082C0D075D000C000C032
:1001A30001C002C003C004C005C006C007758CFCB3
:1001B300758A182000190524E52470020523C394C9
:1001C300E8E52394034008752300752400D2001248
:1001D30001171201F3D007D006D005D004D003D005
:1001E30002D001D000D0D0D082D083D0F0D0E03282
:070003008F258D268B2722BB
:10009A000527C3E527943C748094804021E4F52722
:1000AA000526E526943C748094804012E4F52605E2
:1000BA0025E5259418748094804003E4F525E52508
:1000CA0075F00A84FFE52575F00A84E5F0FD7C00E9
:1000DA00E52675F00A84750F00F510E52675F00A15
:1000EA0084E5F0751100F51275130075140AE527F9
:1000FA0075F00A84751500F516E52775F00A84E58A
:0D010A00F0751700F5187B0A7A0002029CC0
:0300000002000EED
:0C000E00787FE4F6D8FD758130020055C3
:10001A0002022CE493A3F8E493A34003F68001F2CE
:10002A0008DFF48029E493A3F85407240CC8C333E7
:10003A00C4540F4420C8834004F456800146F6DFB6
:10004A00E4800B0102040810204080900284E47EC0
:10005A00019360BCA3FF543F30E509541FFEE493AB
:10006A00A360010ECF54C025E060A840B8E493A372
:10007A00FAE493A3F8E493A3C8C582C8CAC583CA9D
:10008A00F0A3C8C582C8CAC583CADFE9DEE780BE55
:01029B000062
:00000001FF
