:03000000020923CF
:0C092300787FE4F6D8FD75811C02096A9B
:100A4A00C0F9A4B0999282F880900102040810209B
:0A0A5A0040800901020605060708A6
:0A0A6400081500000000000000006B
:1009E10078087C007D007BFF7A0A795C7E007F08B5
:1009F1001208D07B007A0079087F087E001209AFC7
:050A0100120A0680FB53
:100A2B00D3EF9400EE94004015E4FDFC0DBD0001E6
:0E0A3B000CED64784C70F5EF1F70E51E80E244
:010A4900228A
:0A09AF008E108F118B128A13891429
:1009B900E4FFFEC3EF9511EE9510501BAB12AA137D
:1009C900A9148F828E831208F6FD74152FF8A605D7
:0709D9000FBF00010E80DCDE
:0109E00022F4
:100A0600E4FFEFC39408748094805018EF900A5462
:100A160093F5B075A0FF74152FF8E6900A4A93F582
:040A2600A00F80DEBF
:010A2A0022A9
:10092F000209E1E493A3F8E493A34003F68001F2F4
:10093F0008DFF48029E493A3F85407240CC8C333C9
:10094F00C4540F4420C8834004F456800146F6DF98
:10095F00E4800B0102040810204080900A64E47EBA
:10096F00019360BCA3FF543F30E509541FFEE4938D
:10097F00A360010ECF54C025E060A840B8E493A354
:10098F00FAE493A3F8E493A3C8C582C8CAC583CA7F
:10099F00F0A3C8C582C8CAC583CADFE9DEE780BE37
:010A6E000087
:10080000E709F608DFFA8046E709F208DFFA803EDA
:1008100088828C83E709F0A3DFFA8032E309F608C7
:10082000DFFA8078E309F208DFFA807088828C832F
:10083000E309F0A3DFFA806489828A83E0A3F608E3
:10084000DFFA805889828A83E0A3F208DFFA804CBD
:1008500080D280FA80C680D4806980F28033801094
:1008600080A680EA809A80A880DA80E280CA8033FD
:1008700089828A83ECFAE493A3C8C582C8CCC58375
:10088000CCF0A3C8C582C8CCC583CCDFE9DEE78045
:100890000D89828A83E493A3F608DFF9ECFAA9F0C4
:1008A000EDFB2289828A83ECFAE0A3C8C582C8CC1A
:1008B000C583CCF0A3C8C582C8CCC583CCDFEADE33
:1008C000E880DB89828A83E493A3F208DFF980CC95
:1008D00088F0EF60010E4E60C388F0ED2402B4048E
:1008E0000050B9F582EB2402B4040050AF23234535
:0608F00082239008507302
:1008F600BB010CE58229F582E5833AF583E02250B7
:1009060006E92582F8E622BBFE06E92582F8E22200
:0D091600E58229F582E5833AF583E493221A
:00000001FF
