:0D094B0048656C6C6F00576F726C64210082
:06095F000108000109007F
:10088C001208D07F811209157F011208F8E5089033
:10089C00094B93600EE50890095193FF1209270547
:1008AC000880EA7F321208F87FC01209157F011206
:1008BC0008F8E50990095193FF600712092705080C
:0408CC0080F080FE3A
:1008D0007F381209157F011208F87F0C1209157F65
:1008E000011208F87F061209157F011208F87F012E
:0808F0001209157F010208F84E
:10091500C2A0C2A1C2A28F80D2A200C2A27F010240
:0209250008F8D0
:10092700D2A0C2A1C2A28F80D2A200C2A27F01021E
:0209370008F8BE
:10093900C2A0D2A1C2A2D2A2AF8000EF20E7F1C229
:01094900A20B
:01094A00228A
:1008F800EFD394007480948040127E78EED39400F5
:0C0908007480948040031E80F31F80E484
:0109140022C0
:07095800EF4480FF020915C6
:03000000020800F3
:0C080000787FE4F6D8FD758109020847F6
:10080C0002088CE493A3F8E493A34003F68001F26E
:10081C0008DFF48029E493A3F85407240CC8C333ED
:10082C00C4540F4420C8834004F456800146F6DFBC
:10083C00E4800B010204081020408090095FE47EE4
:10084C00019360BCA3FF543F30E509541FFEE493B1
:10085C00A360010ECF54C025E060A840B8E493A378
:10086C00FAE493A3F8E493A3C8C582C8CAC583CAA3
:10087C00F0A3C8C582C8CAC583CADFE9DEE780BE5B
:010965000091
:00000001FF
