:1009F200C0F9A4B0999282F880903F065B4F666D71
:100A02007D077F6F0102040810204080000102036D
:040A120004050607CA
:0D0A4A00081800000000000000000117580F
:10096B00120800E4F50DF50EF50FF510F511F51263
:10097B00E51775F00A84751300F514E51775F00A81
:10098B0084AFF07515008F16E4FBFAFDFCFF120A1D
:06099B00341209A180CA1C
:1009A100E4FFFE74062FF582740A3EF583E493F5A5
:1009B100B075A0FF74182FF8E69009F293F5A00F17
:0A09C100BF00010EEF64084E70D96C
:0109CB002209
:100A1600D3EF9400EE940040147D787C00ED1D70B9
:0D0A2600011CED4C70F7EF1F70E61E80E321
:010A330022A0
:100A34008F188D198B1A850E1B85101C85121D8528
:060A4400141E85161F229E
:10080000E4F50AF508C3E508940474809480400375
:100810000208DE7FFEA808EF08800123D8FDF590CE
:100820008590095309F0E50964F070030208D900C6
:100830008590095309F0E50964F070030208D98531
:100840009009E5091209CC08C67708B27B089E7D9D
:10085000088A7E08C1B708ADBB0899BD0885BE08E7
:10086000BCD708A8DB0894DD0880DE08B7E708A33A
:10087000EB088FED087BEE000008C9E4F50A80491B
:10088000750A018044750A02803F750A03803A7533
:100890000A048035750A058030750A06802B750AB2
:1008A000078026750A088021750A09801C750A0AC6
:1008B0008017750A0B8012750A0C800D750A0D8061
:1008C00008750A0E8003750A0FE50954F064F0609C
:0E08D000088590095309F080F005080208051C
:0108DE0022F7
:030000000208DF14
:0C08DF00787FE4F6D8FD75811F02092621
:1009CC00D083D082F8E4937012740193700DA3A3BA
:1009DC0093F8740193F5828883E4737402936860CE
:0609EC00EFA3A3A380DFCE
:1008EB0002096BE493A3F8E493A34003F68001F2AF
:1008FB0008DFF48029E493A3F85407240CC8C3330E
:10090B00C4540F4420C8834004F456800146F6DFDC
:10091B00E4800B0102040810204080900A4AE47E18
:10092B00019360BCA3FF543F30E509541FFEE493D1
:10093B00A360010ECF54C025E060A840B8E493A398
:10094B00FAE493A3F8E493A3C8C582C8CAC583CAC3
:10095B00F0A3C8C582C8CAC583CADFE9DEE780BE7B
:010A5700009E
:00000001FF
