:10032800C0F9A4B0999282F88090407924301912CB
:040338000278001037
:06000300040C3FFAFAF8BC
:03000B0002033CB1
:03033C00B2A43236
:10026D00758902758CF6758AF6D28CD2A9D2AFD269
:10027D008CC2A5D2A5C2A5E4FF1202EC20A604D221
:10028D00A780F985900AC2A7AC0AE412011E8F134C
:10029D008E128D118C10AB0FAA0EA90DA80C120089
:1002AD000E8F138E128D118C101201528F0AE50ACA
:1002BD0075F06484F508E50A75F06484E5F075F071
:1002CD000A84F50BE50A75F00A8485F0097F0112A1
:0702DD0002EC120309809AF4
:10030900D2A1E5091202E4C2A1D2A2E50B1202E4CC
:0F031900C2A2D2A3E5089003321202E7C2A322C8
:0802E40090032893F5807F01CF
:1002EC00EFD394007480948040127E78EED3940007
:0C02FC007480948040031E80F31F80E497
:0103080022D2
:10000E00EC4D6011E8497017ED33EC3304600DE4EC
:10001E00FCFFFEFD22E933E8330470F80201BE1244
:10002E00018958046009E4CC248150062850090245
:10003E0001C82840030201C5C0E0EB4A7044B980F4
:10004E0006D0E0FB0201B4EF4E701CBD8008EBFF42
:10005E00EAFEE9FD80EBE98DF0A4FEE5F00200F783
:10006E00E9CDF9EAFEEBFFEF89F0A4FCE5F0CE89CD
:10007E00F0A42EFFE435F0CD89F0A42DFEE435F08A
:10008E008067EF4E7005BD80D780C3EF8BF0A4ACB8
:10009E00F0EE8BF0A42CFCE435F0F8EF8AF0A42CF3
:1000AE00E5F038FCE433CB8DF0A42CFCE5F03BF806
:1000BE00EE8AF0A42CFCE5F038F8E433CF89F0A4F6
:1000CE002CFCE5F038CF3400CE89F0A42FFFE5F0FC
:1000DE003EFEE433C98DF0A42EFEE5F039CD8AF054
:1000EE00A42FFFE5F03EFEE43DFD33D0E0FB5007CC
:1000FE000BBB000F0201C8EC2CFCEF33FFEE33FEFE
:06010E00ED33FD0201A02B
:1001140075F020800E75F010800575F0087D007E66
:10012400007F003392D530D5031201D3EC33401055
:10013400EF33FFEE33FEED33FDEC33FCD5F0ED226F
:0E014400E5F0247EA2D513CC92E7CDCEFF22AB
:10015200EDD2E7CD33EC3392D524814006E4FFFEA5
:10016200FDFC22FCE4CFCECDCC24E0501174FF8004
:10017200EDC3CC13CCCD13CDCE13CECF13CF0470A1
:07018200F030D5DE0201D3CD
:10018900E9D2E7C933E833F892D5EDD2E7CD33ECBC
:0701990033FC5002B2D52235
:1001A000EC30E7100FBF000C0EBE00080DBD0004C0
:1001B0000BEB6014A2D5EB13FCED92E7FD2274FF6C
:1001C000FCFDFEFF22E480F8A2D574FF13FC7D80C5
:0301D000E480EFD9
:030000000201E119
:0C01E100787FE4F6D8FD75811402022836
:0E01D300C3E49FFFE49EFEE49DFDE49CFC223D
:1001ED0002026DE493A3F8E493A34003F68001F2B9
:1001FD0008DFF48029E493A3F85407240CC8C33313
:10020D00C4540F4420C8834004F456800146F6DFE1
:10021D00E4800B0102040810204080900003E47E6E
:10022D00019360BCA3FF543F30E509541FFEE493D6
:10023D00A360010ECF54C025E060A840B8E493A39D
:10024D00FAE493A3F8E493A3C8C582C8CAC583CAC8
:10025D00F0A3C8C582C8CAC583CADFE9DEE780BE80
:0100090000F6
:00000001FF
