:030000000208D91A
:0C08D900787FE4F6D8FD75811D0209202F
:100B41003F065B4F666D7D077F6F777C395E7971FC
:010B510000A3
:100B2E00100C00100010001000100010001000102B
:020B3E000010A5
:0B0B5200EF1FAC0670011E4C70F62275
:1009F0007B077A007C007D02AF03AE02120965C35B
:100A000074019DFFE49C4F24FF92A27C007D02AF05
:100A100003AE021209657C007D02120965C37401F0
:100A20009DFFE49C4F24FF92A37C007D04AF03AEA6
:100A3000021209657C007D02120965C374019DFFE5
:100A4000E49C4F24FF92A4EB25E0240CF8E6FE087A
:100A5000E62441F582740B3EF583E493F5807F3202
:100A60007E00120B52E4F580EB1B70011AEBF47060
:080A700002EAF460030209F43C
:010A7800225B
:100AFC00AE0AAF0B7C007D96120965AB07AA067C8B
:100B0C00007D0A1209658E1A8F1BAE02AF037C00A2
:100B1C007D0A1209658C188D19E50B150B700215E1
:010B2C000ABE
:010B2D0022A5
:080B5D00D2A7120B52C2A7221D
:030A79001209F06F
:100A7C0075080075090AD2A6D2A57590FF20A607A5
:100A8C007508007509082220A50775080075090965
:100A9C0022AF90EFF46058AF90EF2481604B24C0EC
:100AAC00604024E0603524F0602A24F8601F24FCA8
:100ABC00601424FE6009147036E4F508F5092275FB
:100ACC0008007509012275080075090222750800D5
:100ADC00750903227508007509042275080075094B
:100AEC00052275080075090622750800750907228C
:10080000E4F51CF51DC2A7751C00751D07E51D2527
:10081000E0240CF8E4F608F6E51D151D7002151C21
:10082000E51DB4FFE8E51CB4FFE3120A79E50964AD
:1008300009450870D27F307E75120B5D750A1275FE
:100840000B29751C00751D05E51D25E0240CF876A7
:1008500000087610E51D151D7002151CE51DB4FF7E
:10086000E7E51CB4FFE2120AFC120A79C3E5099419
:1008700009E50894004008E50A6480948050E7C3C5
:10088000E5099408E50894004003020807C3E50A57
:10089000648094805003020807751C00751D05E5EF
:1008A0001D25E0240CF87600087610E51D151D7056
:1008B00002151CE51DB4FFE7E51CB4FFE2E50924C1
:1008C00001F50DE43508F50C1209F0120A7CE50972
:0908D0006408450870F2020807F3
:1008E500020800E493A3F8E493A34003F68001F221
:1008F50008DFF48029E493A3F85407240CC8C33314
:10090500C4540F4420C8834004F456800146F6DFE2
:10091500E4800B0102040810204080900B2EE47E39
:10092500019360BCA3FF543F30E509541FFEE493D7
:10093500A360010ECF54C025E060A840B8E493A39E
:10094500FAE493A3F8E493A3C8C582C8CAC583CAC9
:10095500F0A3C8C582C8CAC583CADFE9DEE780BE81
:010B400000B4
:10096500C2D5EC30E709B2D5E4C39DFDE49CFCEEAD
:1009750030E715B2D5E4C39FFFE49EFE12099BC381
:10098500E49DFDE49CFC800312099B30D507C3E47C
:060995009FFFE49EFE221C
:10099B00BC000BBE0029EF8DF084FFADF022E4CC40
:1009AB00F875F008EF2FFFEE33FEEC33FCEE9DEC09
:1009BB00984005FCEE9DFE0FD5F0E9E4CEFD22ED4F
:1009CB00F8F5F0EE8420D21CFEADF075F008EF2F99
:1009DB00FFED33FD4007985006D5F0F222C398FD8A
:0509EB000FD5F0EA2227
:00000001FF
