:10000E00002018C744444444FC44444444040000C3
:10001E000404040704040404FF0404040404040098
:10002E00000000FE2222222222222222FE000000B6
:10003E008040300F02020202020242827F00000064
:10004E00000000FE82828282828282FE0000000018
:10005E00000000FF40404040404040FF00000000D4
:10006E00060909E6F80C040202020202041E000050
:10007E00000000071F30204040404040201000008C
:10008E00004042445840407F40405048C600000067
:10009E00004044444444444444444444FF0000006B
:1000AE000808E8292E28E80808C80C0BE8080800FC
:1000BE000000FF0949897F00000F40807F0000008B
:1000CE00000202C2020202FE8282828282020000CC
:1000DE004040407F4040407F4040404040404000D4
:1000EE00201808EAACA8A8AFA8A8ACEA08281800FF
:1000FE0000003E02020202FF020212221E00000057
:10010E00404042CC00084888080808FF080808004C
:10011E000040201F204040414048504F404040008A
:10012E00080888FF4848000848FF0808F800000043
:10013E008165080720C0080423C0030023C40F00F4
:10014E0000020CC0004020100C23CC1020404000B8
:10015E0002027F00000001091121D10D03000000F1
:10016E0000028282828282FE82828282820200006B
:10017E00404040404040407F404040404040400072
:10018E0080808080808080808080808080808000E1
:10019E000000000000000000000000000000000051
:1001AE002020FF2024F4545454FF545556F40400D8
:1001BE000000FF00080B1969090B49897D0B080027
:1001CE000000000040301CFF1C304000000000000A
:1001DE0000000000000000FF000000000000000012
:1001EE0000000000000000FF000000000000000002
:1001FE0000000000020C38FF380C02000000000066
:10020E0000000000000000000000000000000000E0
:10021E0000000000000000000000000000000000D0
:10022E001010D0FF901000FE020202FE000000002F
:10023E00040300FF0083601F0000003F4040780071
:10024E000000F888888888FF88888888F800000071
:10025E0000001F080808087F888888889F80F000A3
:10026E008484FC848400F800FF008484FC84840071
:10027E0010301F0888422118070020203F20200040
:10028E00000080C0E0E0E0E0E6EEFEFCF8E0E0E03A
:10029E00E0E0F8FCFEEEE6E0E0E0E0C0800000000A
:1002AE0000FFFFFFFF01C1C1E1E1E1E1E101010159
:1002BE000101E1E1E1E1E1C1C101FFFFFFFE00004B
:1002CE0000FFFFFFFF000101010100107060703898
:1002DE0060603000000101010100FFFFFFFF000020
:1002EE0000030F1F1F3E3E7C7C7C3C3C3C3C3C3C58
:1002FE003C3C3C3C3C7C7C7C3C3E1F1F0F03000086
:10030E000000404040404040404040C0E0400000BF
:10031E0000C0FC38080000000000000000000000D3
:10032E0000000004081060C080E07C0F01008060B7
:10033E001C070302F2F2020202221A0E070200004A
:10034E000000000080C0301C070F1CF8E080000089
:10035E000080E07E0F001FE0800000000000000023
:10036E000008040201000000004040202110180C7B
:10037E000603000000000000030E1C3830100000C1
:10038E00000000000818F0E000000000E0C020208F
:10039E0010181808C0C04040404040E04000000027
:1003AE00000010101010F0F810000000FFFF000009
:1003BE0000000000FFFF0000000000FF0000000032
:1003CE00000000000080FFFF000000003F3F180CFF
:1003DE0004020200FFFF00080818381F000000008A
:1003EE000000060703010000010306040C0C0808B8
:1003FE00181818181B1918181818181808080400B7
:10040E000000000000000080F07C0880808080806A
:10041E00808080FCF8808080808080C0C08000005A
:10042E000000008060380EFF0900000000F8080888
:10043E00080808FFFF0808080808FC08000000006C
:10044E0000000201000000FF0000000000070A3259
:10045E00C282C2FF1F020202020207000000000059
:10046E00000000000000003F004040202010100857
:10047E000C070306040C18183830307030100000CA
:10048E00000000000004F80808080808080808F82A
:10049E00F80808080808080808F8FC08000000001A
:1004AE00000000000000FF0808080808080808FF00
:1004BE00FF0808080808080808FFFF0000000000F1
:1004CE000000000000FF3F0404040404040404FFC1
:1004DE00FF0404040404040404FFFF0000000000F1
:1004EE000040201807010000000000000000001F5F
:1004FE001F00000008081810783F1F0000000000C1
:10050E0000E010080810E000000F102020100F006F
:10051E0000001010F8000000000020203F202000F6
:10052E00007008080808F00000302824222130004E
:10053E0000300808088870000018202121221C00B5
:10054E000000804030F8000000060524243F2424DB
:10055E0000F88888880808000019202020110E0055
:10056E0000E0108888900000000F112020201F004E
:10057E0000180808886818000000003E01000000FE
:10058E000070880808887000001C222121221C009F
:10059E0000F008080810E0000001122222110F00DE
:1005AE003F3F3F3F3F3F3F3FFCFCFCFCFCFCFCFC65
:1005BE0000000000000000000030300000000000CD
:1005CE00000000000000000000000000000000001D
:1005DE000000000000000000000101010101010007
:1005EE00000000C0C000000000000030300000001D
:1005FE0000000000E0000000000101010F010101F8
:10060E0000000000000000000101010101010101D4
:1015E2000628140D110B150E022300190221001EEC
:1015F200012600012700012500013900013C0001FC
:101602003D000235000002370000042F00000000F8
:0716120002330000012E016C
:100C9D008B088A09890A750EFF750F0575102E7B55
:100CAD0008E4FD7F011214BF750EFF750F05751059
:100CBD000E7B10E4FD7F011214BFAB08AA09A90A2F
:100CCD00120BE275F00A8475F010A4240EF9740568
:100CDD0035F0750EFFF50F89107B18E4FD7F0112BD
:100CED0014BFAB08AA09A90A120BE275F00A84E534
:100CFD00F075F010A4240EF9740535F0750EFFF59E
:100D0D000F89107B20E4FD7F011214BFAB08AA09E7
:100D1D00A90A900001120BFB75F00A8475F010A45E
:100D2D00240EF9740535F0750EFFF50F89107B381B
:100D3D00E4FD7F011214BFAB08AA09A90A900001B6
:100D4D00120BFB75F00A84E5F075F010A4240EF972
:100D5D00740535F0750EFFF50F8910E4FBFD7F026C
:100D6D001214BFAB08AA09A90A900002120BFB7559
:100D7D00F00A8475F010A4240EF9740535F0750E83
:100D8D00FFF50F89107B18E4FD7F021214BFAB082D
:100D9D00AA09A90A900002120BFB75F00A84E5F06E
:100DAD0075F010A4240EF9740535F0750EFFF50FCE
:100DBD0089107B20E4FD7F021214BFAB08AA09A99C
:100DCD000A900003120BFB75F00A8475F010A42431
:100DDD000EF9740535F0750EFFF50F89107B207D2A
:100DED00027F011214BFAB08AA09A90A90000312D1
:100DFD000BFB75F00A84E5F075F010A4240EF97460
:100E0D000535F0750EFFF50F89107B287D027F01EA
:100E1D001214BFAB08AA09A90A900004120BFB75A6
:100E2D00F00A8475F010A4240EF9740535F0750ED2
:100E3D00FFF50F89107B387D027F011214BFAB08BF
:100E4D00AA09A90A900004120BFB75F00A84E5F0BB
:100E5D0075F010A4240EF9740535F0750EFFF50F1D
:100E6D008910E4FB7D027F021214BFAB08AA09A909
:100E7D000A900005120BFB75F00A8475F010A4247E
:100E8D000EF9740535F0750EFFF50F89107B107D89
:100E9D00027F021214BFAB08AA09A90A900005121D
:100EAD000BFB75F00A84E5F075F010A4240EF974AF
:100EBD000535F0750EFFF50F89107B187D027F0249
:030ECD000214BF4D
:10112F00750BFF750C00750D0E7B28E4FD7F01120A
:10113F00146F750BFF750C00750D2E7B08E4FD7F8A
:10114F000212146F750BFF750C00750D4E7B28E4A2
:10115F00FD7F0212146F750EFF750F057510EE7B74
:10116F00307D027F011214BF750EFF750F057510CC
:10117F00EE7B087D027F021214BF750BFF750C000A
:10118F00750D8EE4FB7D047F0112146F750BFF75D7
:10119F000C00750DAE7B107D047F0112146F750E60
:1011AF00FF750F057510BE7B387D047F011214BFCC
:1011BF00750BFF750C00750D6E7B087D047F021299
:1011CF00146F750BFF750C00750D6E7B287D067FF8
:1011DF000112146F750BFF750C00750D6E7B287D5A
:0611EF00067F0202146FEE
:10155E00750BFF750C03750D0EE4FB7D027F0112FA
:10156E001334750BFF750C03750D8E7B207D027F7A
:10157E0001121334750BFF750C04750D0EE4FB7D13
:10158E00027F02121334750BFF750C04750D8E7BE2
:08159E00207D027F02021334DC
:100ED000750BFF750C02750D2E7B187D017F0112BD
:100EE000146F750BFF750C02750D4E7B287D017F0D
:100EF0000112146F750EFF750F0575101E7B387D7E
:100F0000017F011214BF750EFF750F0575109EE469
:100F1000FB7D017F021214BF750EFF750F05751062
:100F20000E7B087D017F021214BF750EFF750F0541
:100F300075103E7B107D017F021214BF750BFF758B
:100F40000C02750D6E7B187D017F0212146F750BFC
:100F5000FF750C01750D6E7B287D037F0112146FE8
:100F6000750EFF750F0675100E7B387D037F01121D
:100F700014BF750EFF750F0675100EE4FB7D037F21
:100F8000021214BF750BFF750C01750DAE7B087D49
:100F9000037F0212146F750EFF750F0575101E7B0F
:100FA000107D057F011214BF750EFF750F057510BA
:100FB0009E7B187D057F011214BF750EFF750F050E
:100FC00075104E7B207D057F011214BF750EFF75D5
:100FD0000F0575100E7B287D057F011214BF750E5D
:100FE000FF750F0575105E7B307D057F011214BF04
:100FF000750EFF750F0575100E7B387D057F01128C
:1010000014BF750EFF750F0575101EE4FB7D057F7F
:10101000021214BF750EFF750F0575100E7B087D4B
:10102000057F021214BF750EFF750F0575103E7B0C
:10103000107D057F021214BF750EFF750F05751028
:101040002E7B187D057F021214BF750EFF750F05EC
:0C10500075102E7B207D057F020214BF6E
:1017F60012184212176CE4FF12161AE4FF1218624E
:0518060012061E80FB2C
:10061E001216D4E5256401700EE5397007FF121627
:10062E001A75390112155EE5256402600302098C04
:10063E00E53D7007FF12161A753D0112112F1211AA
:10064E00F51216A97B007A007928120C9DE52E640E
:10065E00017031F52E1215A68E3A8F3BAC3AAD3B9A
:10066E00E4120B28E4FBFA7980783D1209A48F324C
:10067E008E318D308C2F120B617C007D0A120C286E
:10068E008E338F34E5266401600302098CF526FF54
:10069E00FEFDFCAB32AA31A930A82F120AAA6002C5
:1006AE00500302082AE4FFFE7D167C43AB32AA31CA
:1006BE00A930A82F120AAA400302082A750EFF7548
:1006CE000F057510FE7B207D047F011214BFAE3323
:1006DE00AF347C007D64120C3AEFC4F8540FC86836
:1006EE00FFEEC454F048FE740E2FF974053E750EDD
:1006FE00FFF50F89107B287D047F011214BFAE33E6
:10070E00AF347C007D64120C3A7E007F0ACFCDCFD1
:10071E00CECCCE120C3AEFC4F8540FC868FFEEC41C
:10072E0054F048FE740E2FF974053E750EFFF50F4A
:10073E0089107B307D047F011214BFAE33AF347C41
:10074E00007D0A120C3AEDC4F8540FC868FFECC4D1
:10075E0054F048FE740E2FF974053E750EFFF50F1A
:10076E008910E4FB7D047F021214BFAC23AD24E498
:10077E00120B28AB32AA31A930A82F120AAA502187
:10078E00C290D291750BFF750C01750D0E7B207DFD
:10079E00047F0212146F750BFF750C01750D4E80E0
:1007AE005CAC21AD22E4120B28AB32AA31A930A8E1
:1007BE002F120AAA60234021D290C291750BFF75A9
:1007CE000C01750D0E7B207D047F0212146F750BCC
:1007DE00FF750C01750D2E8024D290D291E4F53761
:1007EE00F538750BFF750C00750DCE7B207D047FE3
:1007FE000212146F750BFF750C00750DEE7B307DBC
:10080E00047F0212146FC3E5389402E5379400405A
:10081E0009C2947FE812178D8002D294750EFF756F
:10082E000F057510FE7B107D067F011214BFAE23DF
:10083E00AF247C007D0A120C3AEFC4F8540FC8683E
:10084E00FFEEC454F048FE740E2FF974053E750E7B
:10085E00FFF50F89107B187D067F011214BFAE23A2
:10086E00AF247C007D0A120C3AEDC4F8540FC86810
:10087E00FFECC454F048FE740E2FF974053E750E4D
:10088E00FFF50F89107B207D067F011214BF750EB8
:10089E00FF750F057510FE7B107D067F021214BFCB
:1008AE00AE21AF227C007D0A120C3AEFC4F8540F31
:1008BE00C868FFEEC454F048FE740E2FF974053E5E
:1008CE00750EFFF50F89107B187D067F021214BF7F
:1008DE00AE21AF227C007D0A120C3AEDC4F8540F03
:1008EE00C868FFECC454F048FE740E2FF974053E30
:1008FE00750EFFF50F89107B207D067F021214BF47
:10090E00E527701C750BFF750C01750DEEFB7D0652
:10091E007F0112146F750BFF750C01750DCE805291
:10092E00E52764017027750BFF750C01750DEEFB45
:10093E007D067F0112146F7FF412178D750BFF75F4
:10094E000C02750D0EE4FB7D067F01802BE52764FE
:10095E00027028750BFF750C01750DCEFB7D067FA1
:10096E000212146F7FF412178D750BFF750C027542
:10097E000D0EE4FB7D067F0212146FE4F53CE525B7
:10098E0064037011E53C7007FF12161A753C0112D4
:06099E000ED0E4F53D223D
:10184200758961758CB1758AE0D28CD2A9D2AF222A
:03000B000213B02D
:1013B000C0E0C0F0C0D075D000C000C004C005C0FF
:1013C00006C007758CB1758AE00536E536700205F2
:1013D00035AE35FF7C007D0A120C3AED4C70277556
:1013E0002601AE35AF36FC7D32120C3AED4C70164C
:1013F000752E01C3E53894C8E537940050080538C8
:10140000E53870020537D007D006D005D004D000EB
:07141000D0D0D0F0D0E03293
:03186E00DFFE2278
:10178D00EFD394007480948040127E78EED3940051
:0C179D007480948040031E80F31F80E4E1
:0117A900221D
:10182000E4F580C2A3D2A4D2A5E58020E7FBC2A53F
:011830002295
:10183100121820C2A3C2A48F80D2A5000000C2A5A5
:011841002284
:10174B00F582E433F583AB0BAA0CA90D120BFBFF4F
:10175B00121820D2A3C2A48F80D2A5000000C2A56C
:01176B00225B
:060003004307B8021831AA
:061862004307C00218312B
:0718520004FF120003AF04C4
:0918590053073F43074002183118
:0618680043073E021831A7
:1017AA00EF14600C14600E2402700EC2A6C2A722A7
:0A17BA00C2A6D2A722D2A6C2A7221F
:10161A001217AAE4FEEEC39408748094805021AF96
:10162A0006120003E4FF121859E4FDEDC394407456
:10163A008094805008E4FF12175B0D80EE0E80D56F
:01164A00227D
:10176C00121820E4FF1217AA121868E4FF1217AA25
:10177C000F121868E4FF1217AA12161AE4FF0218C7
:01178C0062FA
:04146F008D09AC0334
:101473001217AAAF09121854E4FEEEC39410748035
:1014830094805011AB0BAA0CA90D8E8275830012A8
:1014930017570E80E5E509121852E4FEEEC39410C7
:1014A300748094805015EE2410F582E433F583ABF9
:0B14B3000BAA0CA90D1217570E80E1C8
:0114BE00220B
:0414BF008D0CAC03E1
:1014C3001217AAAF0C121854E4FEEEC394087480EA
:1014D30094805011AB0EAA0FA9108E82758300124F
:1014E30017570E80E5E50C121852E4FEEEC394087C
:1014F300748094805015EE2408F582E433F583ABB1
:0B1503000EAA0FA9101217570E80E16E
:01150E0022BA
:041334008D09AC0370
:101338001217AAAF09121854E4FEEEC39420748061
:1013480094805011AB0BAA0CA90D8E8275830012E4
:1013580017570E80E5E509121852E4FEEEC39420F3
:10136800748094805009EE242012174B0E80EDE50E
:10137800092402121853E4FEEEC39420748094806A
:101388005009EE244012174B0E80EDE50924031294
:101398001853E4FEEEC39420748094805009EE2420
:0713A8006012174B0E80EDEF
:0113AF00221B
:08172600ECC313FCD2B57F02F5
:10172E00EFD394007480948040127E6EEED39400BA
:0C173E007480948040031E80F31F80E440
:01174A00227C
:08150F0075F00A84EE25F0FDE1
:10151700AC07D2B7E4FBEBC39408748094805012F5
:10152700EC30E004D2B68002C2B6121726C2B50B61
:1015370080E4E4FBEBC39408748094805016ED308C
:10154700E004D2B68002C2B6EDC313FD12172AC259
:06155700B50B80E0C2B7F5
:01155D00226B
:10141700AC07D2B7E4FBEBC39408748094805012F6
:10142700EC30E004D2B68002C2B6121726C2B50B62
:1014370080E4E4FBEBC39408748094805017EDC3F9
:1014470013FD30B605430580800353057F12172A25
:10145700C2B50B80DFC2B7EDC4540FFFED540FFECA
:07146700EF75F00AA42EFF4F
:01146E00225B
:10105C008B118A128913E4FD7F8E121517AB11AA1E
:10106C0012A913900005120BFBFF75F00A84C454EF
:10107C00F0FEEF7F8012150FAB11AA12A91390008E
:10108C0004120BFBFF75F00A84C454F0FEEF7F8250
:10109C0012150FAB11AA12A913900003120BFBFF30
:1010AC0075F00A84C454F0FEEF75F00A84EE25F056
:1010BC00FD7F84121517AB11AA12A913900002120E
:1010CC000BFBFF75F00A84C454F0FEEF75F00A8434
:1010DC00EE25F0FD7F86121517AB11AA12A91390FD
:1010EC000001120BFBFF75F00A84C454F0FEEF757F
:1010FC00F00A84EE25F0FD7F88121517AB11AA12A9
:10110C00A913120BE2FF75F00A84C454F0FEEF75BC
:10111C00F00A84EE25F0FD7F8C1215177D807F8EF2
:03112C0002151792
:1017DE007F81121417AA07E4FD7F8E12151743029C
:0817EE0080AD027F8002151797
:10180B007F81121417AA07E4FD7F8E121517AD0204
:05181B007F800215179B
:1017C4008B148A158916C2B7C2B5E4FD7F8E121533
:0A17D40017AB14AA15A91602105C49
:1016A9007F8D1214178F287F891214178F297F872E
:1016B9001214178F2A7F851214178F2B7F83121408
:0B16C900178F2C7F811214178F2D2229
:1016FE00C200D2957F0512186EC2957FC812186E61
:10170E007FC812186ED2957F3212186EA295920073
:07171E007F1912186EA200F2
:0117250022A1
:10167B00E4F509F50A750908D3E50994007480941B
:10168B00804018C295E50A13F50AD29530950343AD
:0D169B000A807F1912186E150980DDAF0A54
:0116A800221F
:02164B008F0905
:10164D00E4F50A750A08D3E50A9400748094804085
:10165D0018C295E5091392957F1912186ED295E56A
:0E166D0009C313F509150A80DD7F1902186EF6
:1015A600E4F508FFFEFDFC1216FE7FCC12164B7FFB
:1015B6004412164B7F0A12178D1216FE7FCC121696
:1015C6004B7FBE12164B12167B8F0812167BEF7FCF
:0B15D60000FEEF2508FDE43EFEAF051F
:0115E10022E7
:1011F500E4F50830A00930A10630A2030212A47F4D
:101205000A12178DE50860030212A720A0177508BA
:10121500010527C3E52794037480948050030212C7
:10122500A7E4F5272220A13A750801AF277E00EF34
:1012350064017014D3E5249400E52394004063E52C
:101245002415247002152322EF64024E7054D3E551
:10125500229400E52194004049E5221522700215EB
:10126500212220A23D750801AF277E00EF640170A1
:1012750014C3E5249463E523940050260524E5244E
:101285007002052322EF64024E7017C3E5229463B2
:10129500E5219400500C0522E5227002052122E487
:0212A500F5084A
:0112A7002224
:1016D400E4F5082097207FB812178DE508701A20CA
:1016E40097177508010525C3E52594047480948033
:0916F400400775250222E4F50807
:0116FD0022CA
:1009A400EC4D6011E8497017ED33EC3304600DE44D
:1009B400FCFFFEFD22E933E8330470F8020BCD128C
:1009C4000B9858046009E4CC24815006285009028D
:1009D4000BD7284003020BD4C0E0EB4A7044B98023
:1009E40006D0E0FB020BC3EF4E701CBD8008EBFF8A
:1009F400EAFEE9FD80EBE98DF0A4FEE5F0020A8D44
:100A0400E9CDF9EAFEEBFFEF89F0A4FCE5F0CE892D
:100A1400F0A42EFFE435F0CD89F0A42DFEE435F0EA
:100A24008067EF4E7005BD80D780C3EF8BF0A4AC18
:100A3400F0EE8BF0A42CFCE435F0F8EF8AF0A42C53
:100A4400E5F038FCE433CB8DF0A42CFCE5F03BF866
:100A5400EE8AF0A42CFCE5F038F8E433CF89F0A456
:100A64002CFCE5F038CF3400CE89F0A42FFFE5F05C
:100A74003EFEE433C98DF0A42EFEE5F039CD8AF0B4
:100A8400A42FFFE5F03EFEE43DFD33D0E0FB50072C
:100A94000BBB000F020BD7EC2CFCEF33FFEE33FE45
:060AA400ED33FD020BAF73
:100AAA0074F8CC6480CCC86480C8F58204604FC3F3
:100ABA00EB9FF5F0EA9E42F0E99D42F0E89C45F092
:100ACA00603C501DE5825FFFE582D313CB5BCBF41C
:100ADA002B5582FB50280ABA002409B90020088045
:100AEA001DE5825BFBE582D313CF5FCFF4C3132FDF
:100AFA005582FF50090EBE00050DBD00010CC3EB67
:100B0A009FF5F0EA9E42F0E99D42F0E89C45F060CC
:090B1A0007CC4820E701B3EC22EE
:100B230075F020800E75F010800575F0087D007E4D
:100B3300007F003392D530D503120C8FEC33401075
:100B4300EF33FFEE33FEED33FDEC33FCD5F0ED2256
:0E0B5300E5F0247EA2D513CC92E7CDCEFF2292
:100B6100EDD2E7CD33EC3392D524814006E4FFFE8C
:100B7100FDFC22FCE4CFCECDCC24E0501174FF80EB
:100B8100EDC3CC13CCCD13CDCE13CECF13CF047088
:070B9100F030D5DE020C8FED
:100B9800E9D2E7C933E833F892D5EDD2E7CD33ECA3
:070BA80033FC5002B2D5221C
:100BAF00EC30E7100FBF000C0EBE00080DBD0004A7
:100BBF000BEB6014A2D5EB13FCED92E7FD2274FF53
:100BCF00FCFDFEFF22E480F8A2D574FF13FC7D80AC
:030BDF00E480EFC0
:030000000212A841
:0C12A800787FE4F6D8FD75813D0212EF5E
:100BE200BB010689828A83E0225002E722BBFE0211
:090BF200E32289828A83E4932244
:100BFB00BB010CE58229F582E5833AF583E02250AF
:100C0B0006E92582F8E622BBFE06E92582F8E222F8
:0D0C1B00E58229F582E5833AF583E4932212
:100C2800EF8DF0A4A8F0CF8CF0A428CE8DF0A42EE0
:020C3800FE229A
:100C3A00BC000BBE0029EF8DF084FFADF022E4CC9E
:100C4A00F875F008EF2FFFEE33FEEC33FCEE9DEC67
:100C5A00984005FCEE9DFE0FD5F0E9E4CEFD22EDAD
:100C6A00F8F5F0EE8420D21CFEADF075F008EF2FF7
:100C7A00FFED33FD4007985006D5F0F222C398FDE8
:050C8A000FD5F0EA2285
:0E0C8F00C3E49FFFE49EFEE49DFDE49CFC2276
:1012B4000217F6E493A3F8E493A34003F68001F243
:1012C40008DFF48029E493A3F85407240CC8C3333B
:1012D400C4540F4420C8834004F456800146F6DF0A
:1012E400E4800B01020408102040809015E2E47EA3
:1012F400019360BCA3FF543F30E509541FFEE493FF
:10130400A360010ECF54C025E060A840B8E493A3C5
:10131400FAE493A3F8E493A3C8C582C8CAC583CAF0
:10132400F0A3C8C582C8CAC583CADFE9DEE780BEA8
:0116190000D0
:00000001FF
