:10091500C0F9A4B0999282F88090010204081020D1
:02092500408010
:0A09270008170000000000000000A7
:10088C00750D00750E03750F00751004751100754C
:10089C0012057513007514067515007516077B0285
:1008AC007A007D017C00E4FF1208FF1208BC80FB7B
:1008BC00E4FFEFC39408748094805018EF90091FE4
:1008CC0093F5B075A0FF74172FF8E690091593F502
:0408DC00A00F80DE0B
:0108E00022F5
:1008E100D3EF9400EE940040147D787C00ED1D70F0
:0D08F100011CED4C70F7EF1F70E61E80E358
:0108FE0022D7
:1008FF008F178D188B19850E1A85101B85121C8565
:06090F00141D85161E22D6
:03000000020800F3
:0C080000787FE4F6D8FD75811E020847E1
:10080C0002088CE493A3F8E493A34003F68001F26E
:10081C0008DFF48029E493A3F85407240CC8C333ED
:10082C00C4540F4420C8834004F456800146F6DFBC
:10083C00E4800B0102040810204080900927E47E1C
:10084C00019360BCA3FF543F30E509541FFEE493B1
:10085C00A360010ECF54C025E060A840B8E493A378
:10086C00FAE493A3F8E493A3C8C582C8CAC583CAA3
:10087C00F0A3C8C582C8CAC583CADFE9DEE780BE5B
:0109310000C5
:00000001FF
