:1008C40000C000F900A400B000990092008200F872
:0408D4000080009010
:0408DD00020800000D
:0508D80012088C80FBFA
:10088C0020B0340030B0FDE50925E0FFE50833FE6B
:10089C0074C42FF58274083EF583740193F5A0059A
:1008AC0009E50970020508C3940AE5086480948080
:0808BC004005E4F508F50922EE
:03000000020800F3
:0C080000787FE4F6D8FD758109020847F6
:10080C000208D8E493A3F8E493A34003F68001F222
:10081C0008DFF48029E493A3F85407240CC8C333ED
:10082C00C4540F4420C8834004F456800146F6DFBC
:10083C00E4800B01020408102040809008DDE47E67
:10084C00019360BCA3FF543F30E509541FFEE493B1
:10085C00A360010ECF54C025E060A840B8E493A378
:10086C00FAE493A3F8E493A3C8C582C8CAC583CAA3
:10087C00F0A3C8C582C8CAC583CADFE9DEE780BE5B
:0108E1000016
:00000001FF
