:0208CB00C1006A
:1008A400759850758920758DFD758BFDD28ED2ACEF
:0308B400D2AF229E
:10088C001208A43000FD1208C2E508B43004C2A05E
:08089C008002D2A0C20080EB33
:0908C2008508993099FDC29922C4
:030023000208B719
:0B08B700309807859908D200C29832E3
:03000000020800F3
:0C080000787FE4F6D8FD758120020847DF
:10080C0002088CE493A3F8E493A34003F68001F26E
:10081C0008DFF48029E493A3F85407240CC8C333ED
:10082C00C4540F4420C8834004F456800146F6DFBC
:10083C00E4800B01020408102040809008CBE47E79
:10084C00019360BCA3FF543F30E509541FFEE493B1
:10085C00A360010ECF54C025E060A840B8E493A378
:10086C00FAE493A3F8E493A3C8C582C8CAC583CAA3
:10087C00F0A3C8C582C8CAC583CADFE9DEE780BE5B
:0108CD00002A
:00000001FF
